:100000000EC015C014C013C012C011C010C00FC064
:100010000EC00DC00CC00BC00AC009C008C011241E
:100020001FBECFE5D2E0DEBFCDBF4ED058C0E8CF77
:1000300087B38B6187BB88B3847E88BBBA98C29A2A
:1000400080E48BBF82E085BF7894089588B38B618C
:1000500088BB83E08A95F1F7000088B3847E88BB73
:1000600081E28A95F1F700000895C09A89EB9BED33
:100070000197F1F700C0000088B3836088BB89EB6B
:100080009BED0197F1F700C0000088B38B6088BB3F
:1000900089EB9BED0197F1F700C0000088B38B61FD
:1000A00088BB89EB9BED0197F1F700C0000088B396
:1000B000847E88BB97EE2DEF80E0915020408040F9
:1000C000E1F700C000000895B3DF86B3CEDF83E21E
:1000D00094EF0197F1F700C00000B8DFF6CFF89475
:0200E000FFCF50
:00000001FF
