S01B00005365715F5475726E5F5369675F74696E7938352E73726563C6
S11300000EC01DC01CC068C01AC019C018C017C0DB
S113001016C015C014C013C012C011C010C01124E2
S11300201FBECFE5D2E0DEBFCDBF20E0A0E6B0E04A
S113003001C01D92A036B207E1F7A1D0A9C0E0CF5C
S113004087B38B6187BBBA98C29A80B78E6080BF32
S113005084EB8EBD89B7806489BF7894C09A27EEFB
S11300608DEF90E0215080409040E1F700C0000007
S1130070C098C19A27EE8DEF90E0215080409040C7
S1130080E1F700C00000C198C39A27EE8DEF90E01D
S1130090215080409040E1F700C00000C398C49A0A
S11300A027EE8DEF90E0215080409040E1F700C0B2
S11300B00000C498089588B38B6188BB81E28A9557
S11300C0F1F7000088B3847E88BB89EF90E0019744
S11300D0F1F700C0000008951F920F920FB60F921F
S11300E011242F933F934F935F936F937F938F9339
S11300F09F93AF93BF93EF93FF93B29B02C0DBDF59
S1130100FCCF1FBCFF91EF91BF91AF919F918F9155
S11301107F916F915F914F913F912F910F900FBEFF
S11301200F901F901895C09A83E294EF0197F1F70E
S113013000C0000088B3836088BB83E294EF01971A
S1130140F1F700C0000088B38B6088BB83E294EFB2
S11301500197F1F700C0000088B38B6188BB83E28C
S113016094EF0197F1F700C0000088B3847E88BB48
S113017083E294EF0197F1F700C00000089560DF77
S1130180B29903C01FBCCFDFFBCFB299FECFF8CF2B
S1070190F894FFCF0D
S9030000FC
